:0300000002000EED
:0C000E00787FE4F6D8FD758111020055E2
:10029A00C0F9A4B0999282F880908880C6C0868EF0
:0202AA00BF7F14
:1002850002080000020E000002100000020C00002F
:04029500020A000059
:100249001202267FF47E0112025D1D7F1012022622
:040259007FF47E01AF
:0B025D00EF1FAC0670011E4C70F62273
:1001F300EF24FB601314601914601F24037023E5BC
:10020300A0541F4480F5A022E5A0541F44A0F5A0EC
:1002130022E5A0541F44C0F5A022E5A0541F44E0EA
:03022300F5A02221
:10022600AE077F061201F3AF057401A80708800226
:10023600C333D8FCF5807F071201F3EE90029A9340
:03024600F580221E
:10009A00AE10AF117C007D0A120162AF057D071216
:1000AA000256AE10AF117C007D0A1201627D061263
:1000BA000249AE0EAF0F7C007D0A120162AF057DC8
:1000CA0004120256AE0EAF0F7C007D0A1201627D49
:1000DA0003120249AE0CAF0D7C007D0A120162AF19
:1000EA00057D01120256AE0CAF0D7C007D0A12018D
:0D00FA0062E4FD1202267FF47E0102025D29
:1002AC00758901758C3C758AB0D2AFD2A9D28C22DB
:03000B00020107E8
:10010700C0E0758C3C758AB0050BE50B7002050ADB
:100117006414450A70420511E51170020510750A4D
:1001270000750B00643C4510702E050FE50F70023B
:10013700050E751000751100643C450E700E050D17
:10014700E50D7002050C750E00750F00E50D6418BE
:0B015700450C7004F50CF50DD0E032F3
:1001B70020B3147F647E0012025D20B3F3B28C205B
:1001C700B3F812009A80F820B2217F647E001202F1
:1001D7005D20B2F3C28CE4F50EF50FF510F511F5BD
:0C01E7000AF50B20B2EB12009A80F822FF
:100268007F051201F3E4F5801F1201F37580FF1278
:0D02780001F31202AC12009A1201B780F8D7
:10001A00020268E493A3F8E493A34003F68001F292
:10002A0008DFF48029E493A3F85407240CC8C333E7
:10003A00C4540F4420C8834004F456800146F6DFB6
:10004A00E4800B0102040810204080900285E47EBF
:10005A00019360BCA3FF543F30E509541FFEE493AB
:10006A00A360010ECF54C025E060A840B8E493A372
:10007A00FAE493A3F8E493A3C8C582C8CAC583CA9D
:10008A00F0A3C8C582C8CAC583CADFE9DEE780BE55
:010299000064
:10016200BC000BBE0029EF8DF084FFADF022E4CC81
:10017200F875F008EF2FFFEE33FEEC33FCEE9DEC4A
:10018200984005FCEE9DFE0FD5F0E9E4CEFD22ED90
:10019200F8F5F0EE8420D21CFEADF075F008EF2FDA
:1001A200FFED33FD4007985006D5F0F222C398FDCB
:0501B2000FD5F0EA2268
:00000001FF
