:03000000020AD918
:0C0AD900787FE4F6D8FD758175020B20D3
:101180005354002425752C252E32660D0A0050413B
:101190005241002425752C25750D0A004552524FE9
:0411A000520D0A00E2
:101059000A2DC0F9A4B0999282F88090083CFFFF4C
:10106900FFFFFFFFFFFF032A323B17012500014461
:101079001401242301231E043841C1D70A01220087
:100FBB00EF24FB601314601914601F24037024E5E5
:100FCB00A0541F4480F5A022E5A0541F44A0F5A017
:100FDB0022E5A0541F44C0F5A022E5A0541F44E015
:070FEB00F5A02253A01F2214
:10127C007F04120FBB7580FF0F120FBBE4F580FFCC
:03128C00020FBB93
:10123B00759850438E01438E0475D7C775D6FE4300
:07124B008E10D2AFD2AC22DD
:1010E3008B5A8A5B895CAB5AAA5BA95C12052560A3
:1010F30016055CE55C7002055B14F9120525F5998C
:081103003099FDC29980DF2242
:100B6500755DFF755E11755F807560007561027B4F
:100B7500007A007946120CE0EF3395E04F701C7552
:100B85005DFF755E11755F83F560854461853B6525
:100B9500853A648539638538628032755DFF755E97
:100BA50011755F8E7560007561047B007A0079466A
:100BB500120CE0EF3395E04F7023755DFF755E1104
:100BC500755F93F560852461F562852363FB7A0083
:100BD500795012062F7B007A00795080067BFF7AC8
:060BE50011799C1210E3DF
:010BEB0022E7
:03002300020E1EAC
:100E1E00C0E0C0F0C083C082C0D075D000C000C09A
:0D0E2E0001C002C003C004C005C006C0071B
:100E3B0030981AC298AF99EF640A600B7446252557
:0D0E4B00F8A60705258006752500120B6529
:100E5800D007D006D005D004D003D002D001D000EE
:0B0E6800D0D0D082D083D0F0D0E03298
:100EBE001211327FCC12110B7F4412110B12113210
:100ECE007FCC12110B7FBE12110B1211A48F0C12BC
:100EDE0011A48F0D121132E50DAD0CFCEC1201D1E7
:100EEE00E4FBFA7980783D1200268F3B8E3A8D39DD
:020EFE008C382E
:010F000022CE
:100F0100E4FBFA79A0784012012FE4FBFA797F78AB
:100F1100431200268F0B8E0A8D098C08120DBB7FA0
:100F210090120BEC120D4F7F40120BEC120D4FAFD4
:100F31000BAE0AAD09AC0812020A120BEC120D4FEE
:030F4100020FF2AA
:100E7300120DBB7F90120BEC120D4F7F01120BEC86
:100E8300120D4F120FF2120DBB7F91120BEC120CCD
:100E930068AC07E41201D6E4FBFA797F78431201C8
:100EA3002FE4FBFA79FA78431200268F298E288DD6
:0B0EB300278C26C209120A42020FF22F
:1011C7008F0E8D0F120DBB7FA0120BEC120D4FAFC0
:1011D7000E120BEC120D4FAF0F120BEC120D4F024C
:0211E7000FF205
:02108A008F10C5
:10108C00120DBB7FA0120BEC120D4FAF10120BEC1C
:10109C00120D4F120FF2120DBB7FA1120BEC120CA2
:0D10AC00688F11C209120A42120FF2AF1133
:0110B9002214
:1012A200EFC4540FFEEF540FFFEE75F00AA42FFFA8
:0112B2002219
:10128F00EF75F00A84FEEF75F00A84EEC454F02572
:02129F00F0FF5E
:0112A100222A
:100F83007513807D807F8E121268E4F512C3E5121B
:100F93009403748094805019742A2512F8E6FF1282
:100FA300128FAD07AF1312126805130513051280D4
:080FB300DCE4FD7F8E021268F0
:1010BA00751581E4F514C3E5149403748094805083
:1010CA0017AF15120F441212A2742A2514F8A60794
:0810DA0005150515051480DE63
:0110E20022EB
:0B12B300E5B0F4FF65375FF5458F37AD
:0112BE00220D
:101026007F07120FBB7580FF1F120FBBAF22A807E9
:101036007401088002C333D8FCF5807F07120FBB0A
:10104600743C2522F8E6F580E4FF120FBB05225317
:0210560022076F
:011058002275
:10122200852D3C852E3D852F3E85303F853140857D
:0912320032418533428534432228
:10000E00538E7F5389F0758A18758CFCC28DD28CF5
:05001E00D2AFD2A922BF
:03000B000211E9F6
:1011E900C0E0C0D075D000C000C0071212B31212FF
:0D11F90022121026D007D000D0D0D0E03256
:0B12BF0012127C12123B12000E80FE87
:10120600E4FEEEC3940874809480500FC297EF13E7
:0B12160092A3EFC313FFD2970E80E7F6
:0112210022AA
:10126800C29300C29700D29300121206AF05121261
:0412780006C29322F5
:100F4400E4FDC29300C29700D29300121206E4FF9C
:100F5400EFC39408748094805011C297EDC313FDBD
:100F640030A303430580D2970F80E5C29300C29358
:0E0F7400C29700D29700C2A300D2A300AF051F
:010F8200224C
:100DBB00D2A1D2A000000000000000000000000043
:100DCB000000000000000000000000000000000018
:100DDB000000000000000000000000000000000008
:100DEB0000C2A10000000000000000000000000095
:100DFB0000000000000000000000000000000000E8
:100E0B0000000000000000000000000000000000D7
:030E1B00C2A02250
:100FF200C2A1D2A00000000000000000000000001A
:1010020000000000000000000000000000000000DE
:1010120000000000000000000000000000000000CE
:0410220000D2A12235
:100A4200300904C2A18002D2A1000000000000000F
:100A52000000000000000000000000000000000094
:100A62000000000000000000000000000000000084
:100A7200000000000000D2A0000000000000000002
:100A82000000000000000000000000000000000064
:100A92000000000000000000000000000000000054
:100AA2000000000000C2A0D2A1000000000000006F
:100AB2000000000000000000000000000000000034
:100AC2000000000000000000000000000000000024
:070AD20000000000000022FB
:100D4F00D2A1000000000000000000000000000021
:100D5F000000000000000000000000000000000084
:100D6F00000000000000000000000000000000D2A2
:100D7F00A0000000000000000000000000000000C4
:100D8F000000000000000000000000000000000054
:100D9F00000000000000000000000000000030A173
:0C0DAF0007C2A0120FF2C322C2A0D32280
:100BEC00E4FEEEC3940874809480506FEF30E704F9
:100BFC00D2A18002C2A10000000000000000000091
:100C0C0000000000000000000000000000000000D8
:100C1C0000000000000000000000000000000000C8
:100C2C00000000D2A0EF25E0FF0000000000000053
:100C3C0000000000000000000000000000000000A8
:100C4C000000000000000000000000000000000098
:0B0C5C00000000000000C2A00E808716
:010C6700226A
:100C6800E4FEEEC3940874809480506BD2A0000018
:100C7800000000000000000000000000000000006C
:100C8800000000000000000000000000000000005C
:100C98000000000000000000000000EF25E0FF3029
:100CA800A103430701C2A0000000000000000000EB
:100CB800000000000000000000000000000000002C
:100CC800000000000000000000000000000000001C
:070CD800000000000E808BFC
:010CDF0022F2
:041252007F057E0096
:101256007C007D0C12057DEF1FAC0670011E4C70E4
:02126600F6226E
:02110B00AB0730
:10110D00E4FAEAC39408748094805012C294EB13ED
:10111D009294121252D294EBC313FB0A80E47F0512
:05112D007E00021256D5
:1011A400E4FAEAC39408748094805014C294EBC3A4
:1011B40013FBD2943094034303801212520A80E248
:0211C400AF0377
:0111C6002206
:10113200C20AD2947F0C7E00121256C2947F507E55
:1011420000121256D2947F0A7E00121256A2949274
:061152000A121252A20A6B
:011158002274
:10002600EC4D6011E8497017ED33EC3304600DE4D4
:10003600FCFFFEFD22E933E8330470F80202761273
:10004600024158046009E4CC248150062850090274
:10005600028028400302027DC0E0EB4A7044B9806A
:1000660006D0E0FB02026CEF4E701CBD8008EBFF71
:10007600EAFEE9FD80EBE98DF0A4FEE5F002010F52
:10008600E9CDF9EAFEEBFFEF89F0A4FCE5F0CE89B5
:10009600F0A42EFFE435F0CD89F0A42DFEE435F072
:1000A6008067EF4E7005BD80D780C3EF8BF0A4ACA0
:1000B600F0EE8BF0A42CFCE435F0F8EF8AF0A42CDB
:1000C600E5F038FCE433CB8DF0A42CFCE5F03BF8EE
:1000D600EE8AF0A42CFCE5F038F8E433CF89F0A4DE
:1000E6002CFCE5F038CF3400CE89F0A42FFFE5F0E4
:1000F6003EFEE433C98DF0A42EFEE5F039CD8AF03C
:10010600A42FFFE5F03EFEE43DFD33D0E0FB5007B3
:100116000BBB000F020280EC2CFCEF33FFEE33FE2C
:06012600ED33FD0202585A
:10012C00020280EC5D046005E8590470030202765B
:10013C00120241580460F6EC4860F2EC7004FDFECB
:10014C00FF22C860DB2481C85009C39860025006A6
:10015C0002027D9850CAF582E9294B4A7005AB82A0
:10016C0002026C75F0007C1A7880C3EF9BEE9AED5E
:10017C0099400DC3EF9BFFEE9AFEED99FDE842F01E
:10018C00DC23ACF0D0E0FFD0E0FED0E0FDAB822071
:10019C00E7101BEB60BAEC2CFCEF33FFEE33FEEDFB
:1001AC0033FD020258E803F830E705C0F075F000A3
:1001BC00EF2FFFEE33FEED33FD40B830E7C280AADF
:1001CC0075F020800E75F010800575F0087D007EAE
:1001DC00007F003392D530D50312058FEC334010DD
:1001EC00EF33FFEE33FEED33FDEC33FCD5F0ED22B7
:0E01FC00E5F0247EA2D513CC92E7CDCEFF22F3
:10020A00EDD2E7CD33EC3392D524814006E4FFFEEC
:10021A00FDFC22FCE4CFCECDCC24E0501174FF804B
:10022A00EDC3CC13CCCD13CDCE13CECF13CF0470E8
:07023A00F030D5DE02058F54
:1005D300E571245DF8E6057122785A300702785DEB
:1005E300E475F00112059D0205252000EB7F2ED254
:1005F300008018EF540F2490D43440D4FF30040B00
:10060300EF24BFB41A0050032461FFE572600215A2
:10061300720575E5757002057430070D785AE47537
:10062300F00112059DEF02056B0211597403D20705
:100633008003E4C207F5718B5A8A5B895CE4F57227
:10064300F574F575E57260077F2012060E80F57567
:1006530073FFC201C200C202C203C205C206C208BE
:100663001205DCFF700D3007057F0012061FAF7502
:10067300AE7422B4255FC2D5C2041205DCFF24D0B8
:10068300B40A00501A75F00A787230D50508B6FF1F
:100693000106C6A426F620D5047002D20380D9240D
:1006A300CFB41A00EF5004C2E5D20402090CD20100
:1006B30080C6D20080C0D20280BCD2D580BAD20517
:1006C30080B47F2012060E2002077401B572004029
:1006D300F11205D3FF12060E020647D208D2068096
:1006E300951205D3FB1205D3FA1205D3F94A4B70C1
:1006F3000679037A0A7BFF20022EE572602A7E00C8
:100703008E8275830012053E60060EEE657370F0EF
:10071300C2D5EBC0E0EAC0E0E9C0E0EE12096CD05C
:10072300E0F9D0E0FAD0E0FB120525FF60AAEBC0A8
:10073300E0EAC0E0E9C0E012060ED0E02401F9D0FF
:10074300E03400FAD0E0FBE5730460DCD573D980B4
:1007530087D20280A212094F60F7E5737001041279
:10076300028BA973600DE573600914F5731209F622
:10077300EF60F3EA30E702F404C3995077EAF42513
:10078300730430E701E404F573800D12094F60C16F
:10079300EA0573257312028BEA7870F630E701E4F9
:1007A300257304D573042005011412096CE4C0E019
:1007B3001209F67870E6601320E70714F61205F6BF
:1007C300802204F6D0E014C0E07F001205F6E57342
:1007D30060071205ED1573800B3005031205EDD08C
:1007E300E0020647D0E00480C512094F60A0E5731C
:1007F3000412028B7870EAF6E573200502600104A7
:05080300240412096C41
:1008080074FF04C0E01209F61205F6E5732005022C
:1008180060031205EDD0E0B573E87F451206007855
:1008280070E67F2B30E7047F2DF404C0E012060E3B
:10083800D0E075F00A84C0F01205F7D0E01205F791
:10084800020647791080027908C206C2088008D2D9
:10085800D5790A8004790AC2D5E573047002F57364
:10086800E4FAFDFEFF1205D3FC7B082001131205F4
:10087800D3FD7B1030000A1205D3FE1205D3FF7B8F
:1008880020EC3382D592D55013C3E43000069FFF85
:10089800E49EFEE42001039DFDE49CFCE4CBF8C249
:1008A80001EC700CCFCECDCCE824F8F870F38017AB
:1008B800C3EF33FFEE33FEED33FDEC33FCEB33FBDC
:1008C800994002FB0FD8E9EB300105F8D0E0C448A5
:1008D800B201C0E00AEC4D4E4F78207B0070C2EAAE
:1008E800B5730040BCC0E012096ED0F0D0E0200122
:1008F80004C4C0E0C4B201C0F01205F7D0F0D5F0CE
:10090800EB0206471205AD06E453084B5806B54CF2
:1009180006B142084F4F08574408574906CA4308CA
:100928005D55078E4607EC450758470A235006B918
:100938002D06BD2E06E02B06C12306DE200A0C2A52
:10094800067948000006D8E573B4FF0375730612EC
:1009580005D3FC1205D3FD1205D3FE1205D3FF788B
:10096800690202BA790AA2D5200314300509B91020
:10097800020404B9080104A2D5200602500104208B
:1009880002689202B572005034C0E07F203003192B
:100998007F30A20272067205500F1209C5C202C248
:1009A80006C205C2087F30800F300503E9C0E01297
:1009B800060E300503D0E0F9D0E0B572CC3005174B
:1009C8007F30B9100C12060E7F583004077F7880EC
:1009D80003B9080312060E3002057F2D02060E7FAA
:1009E800202008F87F2B2006F322920280CF7F0078
:1009F800B4070050052469F8E6FF22286E756C6C70
:100A08002900D2011205D33001F8C201787230D51D
:100A18000108F60206792D504349581205D32403DC
:100A2800B405004001E4900A1E931205FF743A12BF
:0A0A380005FFD20375720402084B9B
:10024100E9D2E7C933E833F892D5EDD2E7CD33EC03
:0702510033FC5002B2D5227C
:10025800EC30E7100FBF000C0EBE00080DBD000407
:100268000BEB6014A2D5EB13FCED92E7FD2274FFB3
:10027800FCFDFEFF22E480F8A2D574FF13FC7D800C
:03028800E480EF20
:10028B00F920E72824F950037907E4F42402FB183A
:10029B00DBFDE624FB5014E9600DE4F618E604F6EA
:0F02AB00B40A08E4F6D9F57401F60A22C2D52286
:1002BA00ED33EC3392D5FA602AB4FF33EDC2E77B13
:1002CA00FF60067A0279DFE4227A0279E820D5040F
:1002DA007A0279E3224E614E002B494E46002D499F
:1002EA004E4600E47A08F608DAFC7B00740722E836
:1002FA00C0E0ECC0E0EDC0E0EEC0E0EFC0E0EA75BF
:10030A00F010A4CAABF075F04DA42BFBE435F0FC59
:10031A00EA2410FAEB34C5FBEC34D9FCEDC2E7FF52
:10032A0075F056A4F42411C5F0F434C58FF0A42A4C
:10033A00E5F03BE43CF620E7141204E5D0E0FFD0F8
:10034A00E0FED0E0FDD0E0FC12012F8014F404128C
:10035A0004E5D0E0FFD0E0FED0E0FDD0E0FC1200E2
:10036A0026D0E0F8E6FAEDD2E7CD33EC332482FB6F
:10037A00E4C3CF33CFCE33CECD33CD33DBF37B07DC
:10038A0075F00A846004F6081B0AE5F0F6088FF097
:10039A00740AA4FFACF08EF0740AA42CFEACF050E0
:1003AA00010C8DF0740AA42CFDE435F0F608DBDEAE
:0303BA00740722A3
:1003BD00020276E86480F8E933E83360110460F0F6
:1003CD00ED33EC337009E8FCE9FDEAFEEBFF2204A6
:1003DD0060DED3EB9FEA9EE99DE8C2E78CF0C2F7A1
:1003ED0095F0400CE8CCF8E9CDF9EACEFAEBCFFB6D
:1003FD0012024185D0F05804700320D5B3E8047083
:10040D00075002B2D502028092D5EC0460F7E4CC1D
:10041D00C0E0C398F8603B94186008400DD0E0FB35
:10042D00020258E4FBFAC9FC8028E830E406E4C96E
:10043D00FBE4CAFCE830E305E4C9CACBFCE8540789
:10044D006010F8C3E913F9EA13FAEB13FBEC13FC94
:10045D00D8F130F52FC3E49CFCEF9BFFEE9AFEED37
:10046D0099FDD0E0FBEF4E4D4C701222DB030202E2
:10047D007DEC2CFCEF33FFEE33FEED33FDED30E77D
:10048D00EB020258EF2BFFEE3AFEED39FDD0E0FB0B
:10049D0050130BBB0003020280ED13FDEE13FEEFB4
:0804AD0013FFEC13FC020258DE
:1004B5003F8000004120000042C80000447A00004F
:1004C500461C400047C35000497424004B189680D1
:1004D5004CBEBC205A0E1BCA6753C21C749DC5AEC8
:1004E500FB60065407601C2323120513EB54386088
:1004F500091204FF12050E120026ECF8EDF9EEFACA
:10050500EFCB22EB12050E80F1543803241C900426
:10051500B5FE93FC0EEE93FD0EEE930ECE93FF22E9
:100AE5000212BFE493A3F8E493A34003F68001F256
:100AF50008DFF48029E493A3F85407240CC8C33312
:100B0500C4540F4420C8834004F456800146F6DFE0
:100B1500E4800B0102040810204080901059E47E07
:100B2500019360BCA3FF543F30E509541FFEE493D5
:100B3500A360010ECF54C025E060A840B8E493A39C
:100B4500FAE493A3F8E493A3C8C582C8CAC583CAC7
:100B5500F0A3C8C582C8CAC583CADFE9DEE780BE7F
:011089000066
:10052500BB010689828A83E0225002E722BBFE02D4
:09053500E32289828A83E4932207
:10053E00BB010CE58229F582E5833AF583E0225072
:10054E0006E92582F8E622BBFE06E92582F8E222BC
:0D055E00E58229F582E5833AF583E49322D6
:10056B00BB010689828A83F0225002F722BBFE016F
:02057B00F32269
:10057D00EF8DF0A4A8F0CF8CF0A428CE8DF0A42E92
:02058D00FE224C
:0E058F00C3E49FFFE49EFEE49DFDE49CFC227D
:10059D00FAE6FB0808E6F925F0F618E6CA3AF6225F
:1005AD00D083D082F8E4937012740193700DA3A3DD
:1005BD0093F8740193F5828883E4737402936860F1
:0605CD00EFA3A3A380DFF1
:10115900EFB40A07740D121164740A309811A89932
:10116900B8130CC2983098FDA899C298B811F630F6
:0711790099FDC299F59922CE
:100CE0008B5A8A5B895CAB5DAA5EA95F120525FE03
:100CF000AB5AAA5BA95C120525FF6E702BEF600D45
:100D0000E56115617002156014456070037F002273
:100D10007401255CF55CE4355BF55B7401255FF5DA
:100D20005FE4355EF55E80BEAB5AAA5BA95C120536
:100D300025FDD3EE6480F8ED64809840037F0122A6
:0F0D4000AB5DAA5EA95F120525FFC3ED9FFF22E1
:00000001FF
