:030000000201EC0E
:0C01EC00787FE4F6D8FD75812002020E39
:0B020300C0F9A4B0999282F88090FF2F
:1000EE00EF24FB601314601914601F24037024E5C1
:1000FE00A0541F4480F5A022E5A0541F44A0F5A0F3
:10010E0022E5A0541F44C0F5A022E5A0541F44E0F0
:07011E00F5A02253A01F22EF
:0B01F800EF1FAC0670011E4C70F622D9
:10012500AB077FC87E001201F87580FF7F061200BD
:10013500EEAF03A8077401088002C333D8FCF5802D
:0D0145007F071200EEED90020393F580227B
:1001D9007F041200EE7580FF0F1200EEE4F580FF38
:0301E9000200EE23
:1000AF00E4FFFE1201797FCC1201527F44120152FC
:1000BF001201797FCC1201527FBE1201521201A0A0
:1000CF008F0A1201A08F0B120179E50BFEE50AFFD3
:0E00DF00EEC4F854F0C868FEEFC4540F48FF9A
:0100ED0022F0
:10006A001200AF8E088F097C007D0A1200157F07E7
:10007A00120125AE08AF097C007D0A120015AD07F2
:10008A007F061201257D0A7F051201257F041201D0
:10009A00257F031201257F021201257F0112012506
:0500AA00E4FF02012546
:08020E001201D912006A80FB05
:0401C3007F057E0036
:1001C7007C007D0C120003EF1FAC0670011E4C7003
:0201D700F6220E
:02015200AB07F9
:10015400E4FAEAC39408748094805012C294EB13B6
:1001640092941201C3D294EBC313FB0A80E47F057B
:050174007E000201C73E
:1001A000E4FAEAC39408748094805014C294EBC3B8
:1001B00013FBD2943094034303801201C30A80E2FC
:0201C000AF038B
:0101C200221A
:10017900C200D2947F0C7E001201C7C2947F507EC8
:10018900001201C7D2947F0A7E001201C7A294927D
:06019900001201C3A200E8
:01019F00223D
:10000300EF8DF0A4A8F0CF8CF0A428CE8DF0A42E11
:02001300FE22CB
:10001500BC000BBE0029EF8DF084FFADF022E4CCCF
:10002500F875F008EF2FFFEE33FEEC33FCEE9DEC98
:10003500984005FCEE9DFE0FD5F0E9E4CEFD22EDDE
:10004500F8F5F0EE8420D21CFEADF075F008EF2F28
:10005500FFED33FD4007985006D5F0F222C398FD19
:050065000FD5F0EA22B6
:00000001FF
