:03000000020003F8
:0C000300787FE4F6D8FD75810902004A00
:0401150002080000DC
:0A010B00D2A7C2A6D2A5E4F5802217
:0600EA00F5807F807EC35B
:0B00F000EF1FAC0670011E4C70F622E2
:10008F00E4FDEDC39403748094805013D2A7C2A6ED
:10009F00C2A57580FF1200ECE41200EA0D80E37D2B
:1000AF0001EDD39408748094805011A80574FF0853
:1000BF008002C333D8FC1200EA0D80E57D01EDD339
:1000CF009408748094805012A80574FF088002C3AE
:0A00DF0033D8FCF41200EA0D80E4AF
:0100E90022F4
:1000FB0012010B12008F0509E50970F7050880F353
:10000F000200FBE493A3F8E493A34003F68001F20C
:10001F0008DFF48029E493A3F85407240CC8C333F2
:10002F00C4540F4420C8834004F456800146F6DFC1
:10003F00E4800B0102040810204080900115E47E3B
:10004F00019360BCA3FF543F30E509541FFEE493B6
:10005F00A360010ECF54C025E060A840B8E493A37D
:10006F00FAE493A3F8E493A3C8C582C8CAC583CAA8
:10007F00F0A3C8C582C8CAC583CADFE9DEE780BE60
:0101190000E5
:00000001FF
