:0300000002009467
:0C009400787FE4F6D8FD75810702005962
:10008200C0F9A4B0999282F880908880C6C0868E0A
:02009200BF7F2E
:10000300EF24FB601314601914601F24037023E5AD
:10001300A0541F4480F5A022E5A0541F44A0F5A0DE
:1000230022E5A0541F44C0F5A022E5A0541F44E0DC
:03003300F5A02213
:0900A0007F05120003E4F5802243
:070070001200367FC87E007C
:0B007700EF1FAC0670011E4C70F6225B
:10003600AE077F06120003AF067401A80708800208
:10004600C333D8FCF5807F07120003ED900082933E
:03005600F5802210
:100059001200A0E4FDFF120070E4F5800D7F01128B
:070069000070E4F58080EC5B
:00000001FF
