:030000000200EF0C
:0C00EF00787FE4F6D8FD75812802013608
:10025E00C0F9A4B0999282F880908880C6C0868E2C
:03026E00BF7FFF50
:1001DB0010190101010101010101010101010101DD
:1001EB0001010108001009FFFFFFFFFFFFFFFFFFE9
:0701FB00FFFFFFFFFFFFFF04
:0B028100EF1FAC0670011E4C70F6224F
:10017B00EF24FB601314601914601F24037023E534
:10018B00A0541F4480F5A022E5A0541F44A0F5A065
:10019B0022E5A0541F44C0F5A022E5A0541F44E063
:0301AB00F5A0229A
:1001AE00AB077FD07E071202817580FF7F0612019A
:1001BE007BAF03A8077401088002C333D8FCF58017
:0D01CE007F0712017BED90025E93F5802209
:100271007F0512017BE4F5801F12017B7580FF224F
:10024900538E7F5389F0758A66758CFCC28DD28C6A
:05025900D2A9D2AF2282
:10000E00E50825E025E02409F8E625E0FFA2C4E492
:10001E00334FFFE50825E025E02409F8A607E5089B
:10002E0025E025E0240AF8E625E0FFA2C2E4334FDE
:10003E00FFE50825E025E0240AF8A607E50825E0F7
:10004E0025E0240BF8E625E0FFA2B5E4334FFFE5EB
:10005E000825E025E0240BF8A607E50825E025E0B5
:10006E00240CF8E625E0FFA2B4E4334FFFE50825A3
:10007E00E025E0240CF8A607E4FFEFC39404748097
:10008E0094805035E50825E025E024092FF8E65444
:10009E000FFD7C00700EE50825E025E024192FF8F1
:1000AE00E4F68012ED640F4C700CE50825E025E0B7
:1000BE0024192FF876010F80C10508530803E508AF
:1000CE0014600F14601114601324037013D2B3C2A2
:1000DE00B022D2B0C2B122D2B1C2B222D2B2C2B317
:0100EE0022EF
:03000B0002022AC4
:10022A00C0E0C0D075D000C000C004C005C007122D
:0F023A00000ED007D005D004D000D0D0D0E032D5
:1002030012027175B0FF120249AD19E4FF1201AE7B
:10021300AD1E7F011201AEAD237F021201AEAD28E8
:070223007F031201AE80E22F
:1000FB00020203E493A3F8E493A34003F68001F216
:10010B0008DFF48029E493A3F85407240CC8C33305
:10011B00C4540F4420C8834004F456800146F6DFD4
:10012B00E4800B01020408102040809001DBE47E88
:10013B00019360BCA3FF543F30E509541FFEE493C9
:10014B00A360010ECF54C025E060A840B8E493A390
:10015B00FAE493A3F8E493A3C8C582C8CAC583CABB
:10016B00F0A3C8C582C8CAC583CADFE9DEE780BE73
:0102020000FB
:00000001FF
