:0300000002000EED
:0C000E00787FE4F6D8FD75810B020055E8
:1001C400C0F9A4B0999282F880908880C6C0868EC7
:0301D400BF7FFFEB
:0C01E700010800010A00010B00010900E2
:0B01F400EF1FAC0670011E4C70F622DD
:10012300EF24FB601314601914601F24037023E58C
:10013300A0541F4480F5A022E5A0541F44A0F5A0BD
:1001430022E5A0541F44C0F5A022E5A0541F44E0BB
:03015300F5A022F2
:10015600AB077FC87E001201F47580FF7F0612018F
:1001660023AF03A8077401088002C333D8FCF580C7
:0D0176007F07120123ED9001C493F5802254
:1001D7007F05120123E4F5801F1201237580FF229A
:10019C00538E7F5389F0E4F58A758CDCC28DD28C3A
:0501AC00D2A9D2AF2230
:10009A00D2B3D2B2D2B1D2B0C2B4C2B5C2C2C2C451
:1000AA00E5B0640245B0FFE5B064084FFFE5B0640F
:1000BA00184FFFE5C064404FFFE5C064404FFFE5BD
:1000CA00B064404FFFE5B0640F4FFFE508650B5F72
:1000DA00F5088F0BC2B3C2B2C2B1C2B0D2B4D2B5A4
:1000EA00D2C2D2C4E5B0640245B0FFE5B064084F9D
:1000FA00FFE5B064184FFFE5C064404FFFE5C064F8
:10010A00404FFFE5B064404FFFE5B064F04FFFE5B4
:08011A000A65095FF50A8F096F
:0101220022BA
:03000B000201B13E
:1001B100C0E0C0D075D000C00712009AD007D0D0DF
:0301C100D0E03259
:100183001201D743B00F12019CAD0BE4FF120156CD
:09019300AD097F0112015680F054
:10001A00020183E493A3F8E493A34003F68001F278
:10002A0008DFF48029E493A3F85407240CC8C333E7
:10003A00C4540F4420C8834004F456800146F6DFB6
:10004A00E4800B01020408102040809001E7E47E5E
:10005A00019360BCA3FF543F30E509541FFEE493AB
:10006A00A360010ECF54C025E060A840B8E493A372
:10007A00FAE493A3F8E493A3C8C582C8CAC583CA9D
:10008A00F0A3C8C582C8CAC583CADFE9DEE780BE55
:0101F300000B
:00000001FF
