:03000000020103F7
:0C010300787FE4F6D8FD75810B0200C87F
:0D00F60048656C6C6F20576F726C642100C0
:10009500EF24FB600C047011E5A0541F4480F5A00B
:0A00A50022E5A0541F44A0F5A0229C
:1000D9007F041200957580FF0F120095E4F58022C8
:0C00E9007F2B7E067DCBDDFEDEFCDFFA07
:0100F50022E8
:10000300759850538EBF538EFE53890F758BE875C9
:0B0013008DFFC2ABD28ED2ACD2AF2268
:03002300020026B2
:10002600C0E0C0F0C083C082C0D075D000C000C0A0
:1000360001C002C003C004C005C006C00730980C4A
:10004600C29885990BE50B04FF12010FD007D00665
:10005600D005D004D003D002D001D000D0D0D082B9
:07006600D083D0F0D0E0329E
:08010F008F993099FDC299227D
:10006D008B088A09890AAB08AA09A90A1200AF6090
:10007D0016050AE50A7002050914F91200AFF59983
:08008D003099FDC29980DF22C9
:1000C8001200D91200037BFF7A0079F612006D80C6
:0100D800FE29
:1000AF00BB010689828A83E0225002E722BBFE024F
:0900BF00E32289828A83E4932282
:00000001FF
