:030000000200A05B
:0C00A000787FE4F6D8FD7581220200E7AD
:0A060D00C0F9A4B0999282F8809021
:10052C00070C0000000101012002130000020A0068
:09053C0000020800000215000095
:10045B007C007D641200157E007F0ACFCDCFCECC01
:0D046B00CE1200157D011204CE7FF47E013B
:0B047800EF1FAC0670011E4C70F62256
:10033F00EF24FB601314601914601F24037023E56E
:10034F00A0541F4480F5A022E5A0541F44A0F5A09F
:10035F0022E5A0541F44C0F5A022E5A0541F44E09D
:03036F00F5A022D4
:1004CE00AE077F0612033FAF057401A8070880022E
:1004DE00C333D8FCF5807F0712033FEE90060D93D1
:0304EE00F5802274
:1002D7001204837FCC1204F17F441204F1120483C9
:1002E7007FCC1204F17FBE1204F11205468F211252
:1002F7000546EF75F010A4F51485F013E521C454F5
:030307000F42148E
:01030A0022D0
:10020E001202D7AE13AF147C007D641200157E006F
:10021E007F0ACFCDCFCECCCE1200157D0512047144
:10022E007580FFAE13AF147C007D0A120015AF056A
:10023E007D061204717580FF7F0612033F75808064
:08024E000F12033F7580C62268
:1003D500752180E4FD7F8E12058DE4F522740C25D0
:1003E50022F8E6FDAF2112058D052105210522E53F
:0D03F50022C3940740E77D807F8E02058DB6
:10040200751D81E4FD7F8E12058DE4F51CAF1D1272
:10041200030B740C251CF8A607051D051D051CE51C
:0D0422001CC3940740E77D807F8E02058D8E
:1001C500120402E50DC4540FFFE4FD12047175809D
:1001D500FFE50D540FFF0D1204717580FF7F0612A8
:1001E500033F7580040F12033F7580BF12047475B9
:1001F50080FFE50CC4540FFF7D031204717580FF69
:09020500E50C540FFF0D0204CEBC
:1003A4001205E67F9012042F1205C57F0312042F55
:1003B4001205C51206011205E67F9112042F1205DB
:1003C400C512050F750A008F0BC2001205600206E4
:0103D4000127
:10012C001203A4AE0AAF0B7C007D6412006AE4FDDE
:10013C001204717580FFAE0AAF0B7C007D64120057
:10014C006A7E007F0ACFCDCFCECCCE12006A1204CD
:10015C006F7580FFAE0AAF0B7C007D0A12006AAF90
:0D016C00057D021204CE7FF47E01020478AE
:1004AA008F198C1A8D1B1205E67FA012042F1205D4
:1004BA00C5AF1912042F1205C5AF1B12042F12055E
:0404CA00C502060160
:020372008F1EDC
:100374001205E67FA012042F1205C5AF1E12042F2A
:100384001205C51205E67FA112042F1205C5120538
:0F0394000F8F1FC200120560120601AF1F7E00FF
:0103A3002237
:100299007D0F7C007F011204AA7F011203728E0870
:1002A9008F097C007D64120015E4FD120471AE080B
:1002B900AF0912045BAE08AF097C007D0A12001574
:0E02C900AF057D021204CE7FF47E01020478A0
:0606170000007F21DFFE60
:01061D0022BA
:1005B400E4FED290120617C2901206170EBE08F27D
:0105C4002214
:10017900E4FDFC53890FF58BF58D1205B4D28E3051
:100189009103308FFAC28E208F29AF8DAD07EDAD67
:100199008BFCEDAE04FF7C007D0A1200157C007D0E
:1001A900111200037D64120015EF2403F516E43ED5
:0B01B900F51522C28F7515037516E7BF
:0101C4002218
:10025600120179E4F517F518AE15AF167C007D642A
:10026600120015E4FD120471AE15AF1612045BAE52
:1002760015AF167C007D0A120015AF057D0212042B
:10028600710518E51870020517C39464E517940004
:0302960040C6223D
:1005D6007F0512033FE4F5801203D512020E80FB5D
:040577007F057E007E
:10057B007C007D0C120003EF1FAC0670011E4C704B
:02058B00F62256
:0204F100AB0757
:1004F300E4FAC294EB139294120577D294EBC313EC
:0C050300FB0ABA08ED7F057E0002057BB4
:10054600E4FAC294EBC313FBD294309403430380C2
:090556001205770ABA08EBAF03A5
:01055F002279
:10048300C202D2947F0C7E0012057BC2947F507E01
:100493000012057BD2947F0A7E0012057BA2949200
:0604A30002120577A2021F
:0104A9002230
:1005A100E4FEC297EF1392A3EFC313FFD2970EBEDF
:0205B10008F050
:0105B3002225
:10058D00C29300C29700D293001205A1AF051205C8
:04059D00A1C2932242
:10030B00E4FDC29300C29700D293001205A1E4FF53
:10031B00C297EDC313FD30A303430580D2970FBFE4
:10032B0008EEC29300C29700D29700C2A300D2A3DB
:03033B0000AF050B
:01033E00229C
:0405F500D2A07F28E9
:0805F90000AE071FEE70F922AD
:0F05E600D2A11205F5C2A17F281205F9C2A022E9
:0C060100C2A11205F5D2A17F280205F964
:10056000C2A0A20092A17F281205F91205F5C2A02F
:07057000D2A17F280205F96A
:1005C5001205F5A2A19201C2A07F281205F9A20188
:0105D5002203
:02042F00AD0717
:10043100E4FCC2A07F281205F9ED30E704D2A180C7
:1004410002C2A17F281205F9D2A0ED25E0FD7F2887
:090451001205F90CBC08DBC2A085
:01045A00227F
:10050F00E4FC1205F5ED25E0FD30A103430501C222
:0C051F00A07F281205F90CBC08E8AF050D
:01052B0022AD
:1000AC000205D6E493A3F8E493A34003F68001F28F
:1000BC0008DFF48029E493A3F85407240CC8C33355
:1000CC00C4540F4420C8834004F456800146F6DF24
:1000DC00E4800B010204081020408090052CE47E83
:1000EC00019360BCA3FF543F30E509541FFEE49319
:1000FC00A360010ECF54C025E060A840B8E493A3E0
:10010C00FAE493A3F8E493A3C8C582C8CAC583CA0A
:10011C00F0A3C8C582C8CAC583CADFE9DEE780BEC2
:0105450000B5
:10000300EF8DF0A4A8F0CF8CF0A428CE8DF0A42E11
:02001300FE22CB
:10001500BC000BBE0029EF8DF084FFADF022E4CCCF
:10002500F875F008EF2FFFEE33FEEC33FCEE9DEC98
:10003500984005FCEE9DFE0FD5F0E9E4CEFD22EDDE
:10004500F8F5F0EE8420D21CFEADF075F008EF2F28
:10005500FFED33FD4007985006D5F0F222C398FD19
:050065000FD5F0EA22B6
:10006A00C2D5EC30E709B2D5E4C39DFDE49CFCEEB1
:10007A0030E715B2D5E4C39FFFE49EFE120015C314
:10008A00E49DFDE49CFC800312001530D507C3E40F
:06009A009FFFE49EFE2220
:00000001FF
