:03000000020003F8
:0C000300787FE4F6D8FD75812002004AE9
:10035F00C0F9A4B0999282F880908880C6C0868E2A
:02036F00BF7F4E
:0D037100070800000001010120020F00003C
:08032600FF1202A17FF47E0129
:0B032E00EF1FAC0670011E4C70F622A1
:1001ED00EF24FB601314601914601F24037023E5C2
:1001FD00A0541F4480F5A022E5A0541F44A0F5A0F3
:10020D0022E5A0541F44C0F5A022E5A0541F44E0F0
:03021D00F5A02227
:1002A100AE077F061201EDAF057401A807088002B1
:1002B100C333D8FCF5807F071201EDEE90035F9305
:0302C100F58022A3
:1001850012027A7FCC1202C47F441202C412027A90
:100195007FCC1202C47FBE1202C41202E28F11127A
:1001A50002E2EF75F010A4F51085F00FE511C454C7
:0301B5000F4210E6
:0101B8002224
:1000F600120185AE0FAF107C007D641200A17E0058
:100106007F0ACFCDCFCECCCE1200A17D051203271C
:100116007580FFAE0FAF107C007D0A1200A1AF05FF
:100126007D061203277580FF7F061201ED7580801C
:080136000F1201ED7580C622D5
:10022000751180E4FD7F8E120312E4F51274082527
:1002300012F8E6FDAF11120312051105110512E5C2
:0D02400012C3940740E77D807F8E020312F9
:10024D00751281E4FD7F8E120312E4F511AF1212C7
:10025D0001B974082511F8A607051205120511E557
:0D026D0011C3940740E77D807F8E020312CD
:10013E0012024DE509C4540FFFE4FD12032775802A
:10014E00FFE509540F0D1203267580FF7F0612017D
:10015E00ED7580040F1201ED7580BF12032A7580B4
:10016E00FFE508C4540F7D031203267580FFE508D2
:07017E00540FFF0D0202A166
:100339007F051201EDE4F5801202201200F6120188
:030349003E80F8FB
:0402FC007F057E00FC
:100300007C007D0C12008FEF1FAC0670011E4C703C
:02031000F622D3
:0202C400AB0786
:1002C600E4FAC294EB1392941202FCD294EBC31399
:0C02D600FB0ABA08ED7F057E0002030061
:1002E200E4FAC294EBC313FBD29430940343038029
:0902F2001202FC0ABA08EBAF038A
:0102FB0022E0
:10027A00C200D2947F0C7E00120300C2947F507E8B
:10028A0000120300D2947F0A7E00120300A2949205
:06029A00001202FCA200AC
:0102A000223B
:10034C00E4FEC297EF1392A3EFC313FFD2970EBE36
:02035C0008F0A7
:01035E00227C
:10031200C29300C29700D2930012034CAF0512039E
:040322004CC2932214
:1001B900E4FDC29300C29700D2930012034CE4FFFE
:1001C900C297EDC313FD30A303430580D2970FBF38
:1001D90008EEC29300C29700D29700C2A300D2A32F
:0301E90000AF055F
:0101EC0022F0
:10000F00020339E493A3F8E493A34003F68001F2CB
:10001F0008DFF48029E493A3F85407240CC8C333F2
:10002F00C4540F4420C8834004F456800146F6DFC1
:10003F00E4800B0102040810204080900371E47EDD
:10004F00019360BCA3FF543F30E509541FFEE493B6
:10005F00A360010ECF54C025E060A840B8E493A37D
:10006F00FAE493A3F8E493A3C8C582C8CAC583CAA8
:10007F00F0A3C8C582C8CAC583CADFE9DEE780BE60
:01037E00007E
:10008F00EF8DF0A4A8F0CF8CF0A428CE8DF0A42E85
:02009F00FE223F
:1000A100BC000BBE0029EF8DF084FFADF022E4CC43
:1000B100F875F008EF2FFFEE33FEEC33FCEE9DEC0C
:1000C100984005FCEE9DFE0FD5F0E9E4CEFD22ED52
:1000D100F8F5F0EE8420D21CFEADF075F008EF2F9C
:1000E100FFED33FD4007985006D5F0F222C398FD8D
:0500F1000FD5F0EA222A
:00000001FF
