:0300000002006F8C
:0C006F00787FE4F6D8FD7581070200855B
:0A007B00D2A7C2A6D2A5E4F58022A8
:06005E00F5807F807EC3E7
:0B006400EF1FAC0670011E4C70F6226E
:10000300E4FDEDC39403748094805013D2A7C2A679
:10001300C2A57580FF120060E412005E0D80E37DCF
:1000230001EDD39408748094805011A80574FF08DF
:100033008002C333D8FC12005E0D80E57D01EDD351
:100043009408748094805012A80574FF088002C33A
:0A00530033D8FCF412005E0D80E4C7
:01005D002280
:0800850012007B12000380FB56
:00000001FF
