:0300000002001EDD
:0C001E00787FE4F6D8FD75810C020065C7
:0B000E0002080000020A0000010C00C4
:10012F00EF601924FB600C047015E5A0541F448088
:10013F00F5A022E5A0541F44A0F5A02253A01F2232
:100179007F0412012F7580FF0F12012FE4F58022F1
:10014F00538E7F5389F0758AA4758CFFC28DD28C24
:05015F00D2A9D2AF227D
:03000B000200AA46
:0900AA00C0E0C0D075D000C00711
:1000B3000509E50970020508646445087008050B25
:1000C300E50B7002050AE50B6464450A7004F50A42
:1000D300F50BE509B50B0DE508B50A087F04120118
:1000E3002F7580FFE50964644508700E7F041201D3
:0A00F3002F758000750800750900E4
:0700FD00D007D0D0D0E032A3
:10016400538EBF53890F758B33758DFEC28FD28E1C
:05017400D2ABD2AF2266
:03001B00020104DB
:0B010400C0E0C0D075D000C006C007EE
:10010F00050CAF0C7E00EF64047002D280EF642800
:07011F004E7004C280F50CD4
:09012600D007D006D0D0D0E032A1
:0E018900120179120164759401E4F59380FE71
:10002A00020189E493A3F8E493A34003F68001F262
:10003A0008DFF48029E493A3F85407240CC8C333D7
:10004A00C4540F4420C8834004F456800146F6DFA6
:10005A00E4800B010204081020408090000EE47E28
:10006A00019360BCA3FF543F30E509541FFEE4939B
:10007A00A360010ECF54C025E060A840B8E493A362
:10008A00FAE493A3F8E493A3C8C582C8CAC583CA8D
:10009A00F0A3C8C582C8CAC583CADFE9DEE780BE45
:0100190000E6
:00000001FF
