:0300000002000EED
:0C000E00787FE4F6D8FD758109020055EA
:0400030002080000EF
:10009A00EF24FB601314601914601F24037023E516
:1000AA00A0541F4480F5A022E5A0541F44A0F5A047
:1000BA0022E5A0541F44C0F5A022E5A0541F44E045
:0300CA00F5A0227C
:10011000758901758C3C758AB0D2A9D2AFD28C2278
:03000B000200CD23
:1000CD00C0E0758901758C3C758AB00509E509702C
:1000DD00020508640A45087002B280E509641445FA
:0C00ED00087006B281F508F509D0E03279
:1000F9007F0512009AE4F5801F12009A7580FF129D
:07010900009A12011080FEB4
:10001A000200F9E493A3F8E493A34003F68001F203
:10002A0008DFF48029E493A3F85407240CC8C333E7
:10003A00C4540F4420C8834004F456800146F6DFB6
:10004A00E4800B0102040810204080900003E47E43
:10005A00019360BCA3FF543F30E509541FFEE493AB
:10006A00A360010ECF54C025E060A840B8E493A372
:10007A00FAE493A3F8E493A3C8C582C8CAC583CA9D
:10008A00F0A3C8C582C8CAC583CADFE9DEE780BE55
:0100070000F8
:00000001FF
