:030000000202A752
:0C02A700787FE4F6D8FD75810A0202861B
:100026004C617374207765656B20492077656E7423
:1000360020746F2074686520746865617472652E1B
:100046002049206861642061207665727920676F97
:100056006F6420736561742E2054686520706C612E
:100066007920776173207665727920696E7465727E
:10007600657374696E672E204920646964206E6F0B
:100086007420656E6A6F792069742E204120796F1D
:10009600756E67206D616E20616E64206120796FD8
:1000A600756E6720776F6D616E2077657265207358
:1000B600697474696E6720626568696E64206D652F
:1000C6002E205468657920776572652074616C6BA3
:1000D600696E67206C6F75646C792E204920676F96
:1000E60074207665727920616E6772792E204920B8
:1000F600636F756C64206E6F74206865617220741E
:100106006865206163746F72732E2049207475725E
:100116006E656420726F756E642E2049206C6F6F59
:100126006B656420617420746865206D616E206162
:100136006E642074686520776F6D616E20616E67EE
:1001460072696C792E205468657920646964206E22
:100156006F742070617920616E7920617474656EA8
:1001660074696F6E2E20496E2074686520656E6412
:100176002C204920636F756C64206E6F7420626555
:1001860061722069742E2049207475726E65642030
:10019600726F756E6420616761696E2E20A1AE492B
:1001A6002063616E27742068656172206120776F15
:1001B600726421A1AF2049207361696420616E6772
:1001C60072696C792EA1AE49742773206E6F6E65C5
:1001D600206F6620796F757220627573696E65731C
:1001E600732C20A1AF2074686520796F756E672027
:1001F6006D616E207361696420727564656C792E19
:1002060020A1AE54686973206973206120707269F9
:100216007661746520636F6E766572736174696F5B
:050226006E21A1AF00F4
:10025300EF24FB600C047011E5A0541F4480F5A04B
:0A02630022E5A0541F44A0F5A022DC
:100297007F041202537580FF0F120253E4F5802288
:10000300759850538EBF538EFE53890F758BE875C9
:0B0013008DFFC2ABD28ED2ACD2AF2268
:030023000202B323
:0602B300309802C29832EF
:10022B008B088A09890AAB08AA09A90A12026D6010
:10023B0016050AE50A7002050914F912026DF59903
:08024B003099FDC29980DF2209
:100286001202971200037BFF7A00792612022B8056
:01029600FE69
:10026D00BB010689828A83E0225002E722BBFE028F
:09027D00E32289828A83E49322C2
:00000001FF
