:030000000205589E
:0C055800787FE4F6D8FD75815C02059FF9
:1007F800808D9AA7B4BFCBD5DFE7EEF4F9FDFFFFF4
:10080800FFFDF9F5EEE7DFD5CBC0B4A79A8D80726E
:1008180065584C40352A2118110B060200000002C9
:0C082800060A10182029343F4B57647258
:1006CA00203C1600000000000000000000000000AE
:1006DA000000000000000000000000000000000010
:1006EA000000000000000000000000000000000000
:1006FA0000000000000000000000000000000001EF
:10070A00150104113F800000040D4382CCCD04087A
:07071A003F800000010C000C
:10085400E5A0541F4480F5A07580FFE5A0541F4413
:07086400A0F5A0E4F58022DD
:1004C000E4FFFE7D707C42AB10AA0FA90EA80D12AE
:1004D0000106A804A905AA06AB077F007E247D7447
:1004E0007C4912020F8F5B8E5A8D598C58538E7F28
:1004F0005389F0AF5BAE5AAD59AC58120363AA06EC
:10050000EA3395E0F9F8C374FF9FFF74FF9AFEE4A5
:1005100099FDE498FCE4FB7A01F9F81207B4AF0303
:100520008F8AAF5BAE5AAD59AC58120363AA06EA84
:100530003395E0F9F8C374FF9FFF74FF9AFEE499C6
:10054000FDE498FCE4FB7A01F9F81207B48F8CC241
:070550008DD28CD2A9D2AFBD
:010557002281
:0A086B0000007F027E0FDEFEDFFCBE
:010875002260
:100834008F5C1200007F901200001200007F4012B3
:100844000000120000AF5C12000012000002000061
:10076E00E4F552F55374F82553F58274073552F5B6
:10077E0083E493FCE412032FAB0BAA0AA909A80881
:10078E001201068F578E568D558C541203637416B4
:10079E002553F8A6070553E55370020552643C45F0
:0607AE005270C20204C0FB
:03000B00020722C7
:10072200C0E0C0F0C083C082C0D075D000C000C09D
:1007320001C002C003C004C005C006C0077416256C
:100742000CF8E6FF120834050CE50C643C7002F567
:100752000CD007D006D005D004D003D002D001D0EF
:0C07620000D0D0D082D083D0F0D0E032A4
:10066B0020B31412086B20B30EE5156407700375E5
:10067B001501051530B3FD20B24412086B20B23EB4
:10068B00E4FFFE7D807C3FAB14AA13A912A81112C4
:10069B0002AC700C7514CD7513CC7512CC75113D65
:1006AB00AF14AE13AD12AC117BCD7ACC79CC783DB7
:0F06BB001200158F148E138D128C1130B3FD2287
:1005E40012066BE51514B40700506F9005FD75F005
:1005F40003A4C58325F0C5837302061202061D02F7
:10060400062802063302063E020648020652751008
:10061400CD750FCC750E82803E7510CD750FCC75DF
:100624000E9280337510CD750FCC750EA48028758D
:10063400109A750F99750EAE801DE4F510F50F75BF
:100644000EC48013E4F510F50F750EDC80097510E7
:1006540066750FE6750EF6750D4385140B85130A42
:07066400851209851108222F
:0B0876001208541205E412076E80F80F
:10000E000203CFE86480F8E933E83360110460F04E
:10001E00ED33EC337009E8FCE9FDEAFEEBFF220458
:10002E0060DED3EB9FEA9EE99DE8C2E78CF0C2F753
:10003E0095F0400CE8CCF8E9CDF9EACEFAEBCFFB1F
:10004E0012039A85D0F05804700320D5B3E80470DB
:10005E00075002B2D50203D992D5EC0460F7E4CC76
:10006E00C0E0C398F8603B94186008400DD0E0FBE8
:10007E000203B1E4FBFAC9FC8028E830E406E4C9C7
:10008E00FBE4CAFCE830E305E4C9CACBFCE854073C
:10009E006010F8C3E913F9EA13FAEB13FBEC13FC47
:1000AE00D8F130F52FC3E49CFCEF9BFFEE9AFEEDEA
:1000BE0099FDD0E0FBEF4E4D4C701222DB03020394
:1000CE00D6EC2CFCEF33FFEE33FEED33FDED30E7D7
:1000DE00EB0203B1EF2BFFEE3AFEED39FDD0E0FB64
:1000EE0050130BBB00030203D9ED13FDEE13FEEF0D
:0800FE0013FFEC13FC0203B137
:10010600EC4D6011E8497017ED33EC3304600DE4F3
:10011600FCFFFEFD22E933E8330470F80203CF1238
:10012600039A58046009E4CC248150062850090239
:1001360003D92840030203D6C0E0EB4A7044B980D5
:1001460006D0E0FB0203C5EF4E701CBD8008EBFF36
:10015600EAFEE9FD80EBE98DF0A4FEE5F00201EF91
:10016600E9CDF9EAFEEBFFEF89F0A4FCE5F0CE89D4
:10017600F0A42EFFE435F0CD89F0A42DFEE435F091
:100186008067EF4E7005BD80D780C3EF8BF0A4ACBF
:10019600F0EE8BF0A42CFCE435F0F8EF8AF0A42CFA
:1001A600E5F038FCE433CB8DF0A42CFCE5F03BF80D
:1001B600EE8AF0A42CFCE5F038F8E433CF89F0A4FD
:1001C6002CFCE5F038CF3400CE89F0A42FFFE5F003
:1001D6003EFEE433C98DF0A42EFEE5F039CD8AF05B
:1001E600A42FFFE5F03EFEE43DFD33D0E0FB5007D3
:1001F6000BBB000F0203D9EC2CFCEF33FFEE33FEF2
:06020600ED33FD0203B11F
:10020C000203D9EC5D046005E8590470030203CFC6
:10021C0012039A580460F6EC4860F2EC7004FDFE90
:10022C00FF22C860DB2481C85009C39860025006C5
:10023C000203D69850CAF582E9294B4A7005AB8265
:10024C000203C575F0007C1A7880C3EF9BEE9AED23
:10025C0099400DC3EF9BFFEE9AFEED99FDE842F03D
:10026C00DC23ACF0D0E0FFD0E0FED0E0FDAB822090
:10027C00E7101BEB60BAEC2CFCEF33FFEE33FEED1A
:10028C0033FD0203B1E803F830E705C0F075F00068
:10029C00EF2FFFEE33FEED33FD40B830E7C280AAFE
:1002AC0074F8CC6480CCC86480C8F58204604FC3F9
:1002BC00EB9FF5F0EA9E42F0E99D42F0E89C45F098
:1002CC00603C501DE5825FFFE582D313CB5BCBF422
:1002DC002B5582FB50280ABA002409B9002008804B
:1002EC001DE5825BFBE582D313CF5FCFF4C3132FE5
:1002FC005582FF50090EBE00050DBD00010CC3EB6D
:10030C009FF5F0EA9E42F0E99D42F0E89C45F060D2
:09031C0007CC4820E701B3EC22F4
:1003250075F020800E75F010800575F0087D007E53
:10033500007F003392D530D5031203E4EC3340102F
:10034500EF33FFEE33FEED33FDEC33FCD5F0ED225C
:0E035500E5F0247EA2D513CC92E7CDCEFF2298
:10036300EDD2E7CD33EC3392D524814006E4FFFE92
:10037300FDFC22FCE4CFCECDCC24E0501174FF80F1
:10038300EDC3CC13CCCD13CDCE13CECF13CF04708E
:07039300F030D5DE0203E4A7
:10039A00E9D2E7C933E833F892D5EDD2E7CD33ECA9
:0703AA0033FC5002B2D52222
:1003B100EC30E7100FBF000C0EBE00080DBD0004AD
:1003C1000BEB6014A2D5EB13FCED92E7FD2274FF59
:1003D100FCFDFEFF22E480F8A2D574FF13FC7D80B2
:0303E100E480EFC6
:10056400020876E493A3F8E493A34003F68001F22F
:1005740008DFF48029E493A3F85407240CC8C33398
:10058400C4540F4420C8834004F456800146F6DF67
:10059400E4800B01020408102040809006CAE47E27
:1005A400019360BCA3FF543F30E509541FFEE4935C
:1005B400A360010ECF54C025E060A840B8E493A323
:1005C400FAE493A3F8E493A3C8C582C8CAC583CA4E
:1005D400F0A3C8C582C8CAC583CADFE9DEE780BE06
:0107210000D7
:1007B400C2D5E830E70FB2D5E4C39BFBE49AFAE470
:1007C40099F9E498F8EC30E717B2D51207EA120465
:1007D4002EE4C39BFBE49AFAE499F9E498F88003C5
:1007E40012042E30D50DE4C39FFFE49EFEE49DFD6C
:0407F400E49CFC2263
:0E03E400C3E49FFFE49EFEE49DFDE49CFC222A
:1003F20075F008758200EF2FFFEE33FECD33CDCCC2
:1004020033CCC58233C5829BED9AEC99E582984044
:100412000CF582EE9BFEED9AFDEC99FC0FD5F0D621
:10042200E4CEFBE4CDFAE4CCF9A88222B800C1B94B
:100432000059BA002DEC8BF084CFCECDFCE5F0CB89
:10044200F97818EF2FFFEE33FEED33FDEC33FCEBC2
:1004520033FB10D703994004EB99FB0FD8E5E4F97D
:10046200FA227818EF2FFFEE33FEED33FDEC33FC6A
:10047200C933C910D7059BE99A4007EC9BFCE99A5E
:10048200F90FD8E0E4C9FAE4CCFB2275F010EF2FA3
:10049200FFEE33FEED33FDCC33CCC833C810D707A3
:1004A2009BEC9AE899400AED9BFDEC9AFCE899F8DE
:0E04B2000FD5F0DAE4CDFBE4CCFAE4C8F92271
:00000001FF
