:0300000002006D8E
:0C006D00787FE4F6D8FD7581070200835F
:0A007900D2A7C2A6D2A5E4F58022AA
:10005C007EFFAD071FED6008AD061EED60F480F865
:01006C002271
:10000300E4FCECC39403748094805009D2A7C2A685
:10001300C2A50C80EDE4FCECC3940874809480507A
:1000230015A80474FF088002C333D8FCF5807FC889
:1000330012005C0C80E1E4FCECC3940874809480AF
:100043005016A80474FF088002C333D8FCF4F5806B
:080053007FC812005C0C80E084
:01005B002282
:0800830012007912000380FB5A
:00000001FF
