:03000000020003F8
:0C000300787FE4F6D8FD75810902004A00
:10014A00C0F9A4B0999282F880908880C6C0868E41
:03015A00BF7FFF65
:06015D0001090001080089
:04011B007F647E007F
:10011F00EF1FAC0670011E4C70F6EF1FAC0670019E
:05012F001E4C70F622D9
:1000E800EF24FB601314601914601F24037023E5C8
:1000F800A0541F4480F5A022E5A0541F44A0F5A0F9
:1001080022E5A0541F44C0F5A022E5A0541F44E0F6
:03011800F5A0222D
:10013400AE077F061200E87580010F1200E8EE900A
:06014400014A93F5802240
:10008F0020B00E12011B20B00830B0FD7F07120107
:10009F003420B11312011B20B10D7F061201343031
:1000AF00B1FD7F1212013420B21D12011B20B217B5
:1000BF007F0512013430B2FD0508E508640A7002AD
:1000CF00F508AF0812013420B30E12011B20B3083C
:0900DF0030B3FD7F04120134224C
:0501640012008F80FB7A
:10000F00020164E493A3F8E493A34003F68001F2A2
:10001F0008DFF48029E493A3F85407240CC8C333F2
:10002F00C4540F4420C8834004F456800146F6DFC1
:10003F00E4800B010204081020408090015DE47EF3
:10004F00019360BCA3FF543F30E509541FFEE493B6
:10005F00A360010ECF54C025E060A840B8E493A37D
:10006F00FAE493A3F8E493A3C8C582C8CAC583CAA8
:10007F00F0A3C8C582C8CAC583CADFE9DEE780BE60
:01016300009B
:00000001FF
