:0300000002000EED
:0C000E00787FE4F6D8FD758111020055E2
:0D018800C0F9A4B0999282F88090BFFFC624
:10017700080AFFFFFFFFFFFFFFFF0108000109005B
:10009A00EF603224FB601314601914601F2403708C
:1000AA0027E5A0541F4480F5A022E5A0541F44A0D0
:1000BA00F5A022E5A0541F44C0F5A022E5A0541FD4
:0900CA0044E0F5A02253A01F221E
:100164007F0412009A7580FF0F12009AE4F580FF55
:0301740002009AEC
:1000D3007F0612009AAF08A8077401088002C33391
:1000E300D8FCF5807F0712009A740A2508F8E6F514
:0E00F30080E4FF12009A7580FF05085308078D
:0101010022DB
:10010200900189E493F50AA3E493F50BA3E493F534
:100112000CA3E493F50DA3E493F50EA3E493F50F7A
:0B012200A3E493F510A3E493F5112271
:10014F00438E805389F0758ACD758CD4C28DD28C35
:05015F00D2A9D2AF227D
:03000B0002012DC2
:0B012D00C0E0C0D075D000C000C007CB
:0E0138000509E509640270061200D37509007E
:09014600D007D000D0D0D0E03287
:0B01950012016412014F12010280FBF6
:10001A00020195E493A3F8E493A34003F68001F266
:10002A0008DFF48029E493A3F85407240CC8C333E7
:10003A00C4540F4420C8834004F456800146F6DFB6
:10004A00E4800B0102040810204080900177E47ECE
:10005A00019360BCA3FF543F30E509541FFEE493AB
:10006A00A360010ECF54C025E060A840B8E493A372
:10007A00FAE493A3F8E493A3C8C582C8CAC583CA9D
:10008A00F0A3C8C582C8CAC583CADFE9DEE780BE55
:010187000077
:00000001FF
