:030000000204E116
:0C04E100787FE4F6D8FD7581390205280B
:10091E00E4FEEEC3940874809480500FC297EF13D8
:0B092E0092A3EFC313FFD2970E80E7E7
:01093900229B
:10099300C29300C29700D2930012091EAF05120939
:0409A3001EC29322BB
:10075000E4FDC29300C29700D2930012091EE4FF89
:10076000EFC39408748094805011C297EDC313FDB9
:1007700030A303430580D2970F80E5C29300C29354
:0E078000C29700D29700C2A300D2A300AF051B
:01078E002248
:0C09D700C0F9A4B0999282F88090BFFF94
:10078F0003303A3B17032A00000001370001330002
:10079F00012E00013800013600012D000139000142
:1007AF002900012F01023400000221000002230062
:0B07BF000002250000012700012801B6
:0B09E300EF1FAC0670011E4C70F622E6
:10080300EF24FB601314601914601F24037024E5A4
:10081300A0541F4480F5A022E5A0541F44A0F5A0D6
:1008230022E5A0541F44C0F5A022E5A0541F44E0D4
:07083300F5A02253A01F22D3
:100952007F041208037580FF0F120803E4F580FF7D
:060962001208030207CB9E
:1005F600E53275F00A12056DFDE4FF12063BE532A1
:1006060075F00A12056DADF07F0112063B7D0A7F7B
:100616000212063BE53175F00A12056DFD7F0312E5
:10062600063BE53175F00A12056DADF07F04120642
:050636003B7D0A7F0579
:10063B00AE077F06120803AF06A8077401088002F5
:10064B00C333D8FCF5807F07120803ED9009D793CD
:10065B00F5807FDC7E051209E37580FFE4FF02085D
:01066B00038B
:1009A700EF75F00A84FEEF75F00A84EEC454F02563
:0209B700F0FF4F
:0109B900221B
:1009BA00EFC4540FFEEF540FFFEE75F00AA42FFF99
:0109CA00220A
:0B09CB00E5B0F4FF65335FF5378F33B4
:0109D60022FE
:10000E00AF377E00EF64017014F52EF5360538C358
:10001E00E5389404748094804003E4F538EF64026C
:10002E004E7015752E01F5380536C3E536940474F9
:10003E008094804003E4F536E5376404706CE52E59
:10004E007020E5386401701A0532AF32EF3395E057
:10005E00FEC3EF9418EE648094804003E4F53212F0
:10006E0009EEE52E7020E5386402701A0531AF31C5
:10007E00EF3395E0FEC3EF943CEE64809480400332
:10008E00E4F5311209EEE52E7020E5386403701A9E
:10009E000530AF30EF3395E0FEC3EF943CEE648055
:1000AE0094804003E4F5301209EEAF377E00EF6422
:1000BE0004706BAD2EFCED6401701DE536640170AD
:1000CE0017052CAB2CEB3395E0FAC3EB9418EA64CE
:1000DE008094804003E4F52CED64014C701DE536F0
:1000EE0064027017052BAD2BED3395E0FCC3ED9438
:1000FE003CEC648094804003E4F52BE52E640170A3
:10010E001DE53664037017052AAD2AED3395E0FC24
:10011E00C3ED943CEC648094804003E4F52AEF64D4
:10012E00084E706CE52E7020E5386401701A153299
:10013E00AF32EF3395E0FED3EF94FFEE6480947F01
:10014E0050037532171209EEE52E7020E538640261
:10015E00701A1531AF31EF3395E0FED3EF94FFEE09
:10016E006480947F500375313B1209EEE52E7020AA
:10017E00E5386403701A1530AF30EF3395E0FED3D7
:10018E00EF94FFEE6480947F500375303B1209EEBE
:10019E00E5376408706BAF2EFEEF6401701DE53617
:1001AE0064017017152CAD2CED3395E0FCD3ED9456
:1001BE00FFEC6480947F5003752C17EF64014E7032
:1001CE001DE53664027017152BAF2BEF3395E0FE4D
:1001DE00D3EF94FFEE6480947F5003752B3BE52E96
:1001EE006401701DE53664037017152AAF2AEF33CC
:1001FE0095E0FED3EF94FFEE6480947F5003752A52
:10020E003B20B332E52E702EE538702A20B327122C
:10021E00070AAE34AF357C007D0A1205A1AD077F0B
:10022E000612063BAE34AF357C007D0A1205A17F67
:07023E000712063B80D622E7
:1008FE001205F6E53075F00A12056DFD7F0612063B
:10090E003BE53075F00A12056DADF07F0702063B30
:10066C00E52C75F00A12056DFDE4FF12063BE52C36
:10067C0075F00A12056DADF07F0112063B7D0A7F05
:10068C000212063BE52B75F00A12056DFD7F031275
:10069C00063BE52B12062AE52A75F00A12056DFDBC
:1006AC007F0612063BE52A75F00A12056DADF07F48
:0406BC000702063BF0
:10024500E52E7024E53870201205F6E53075F00AC4
:1002550012056DFD7F0612063BE53075F00A1205A5
:100265006DADF07F0712063BE52E703CE538640165
:100275007036E52D60051208FE802D7D0BE4FF121A
:10028500063B7F0112063B1D120615E53075F00A87
:1002950012056DFD7F0612063BE53075F00A120565
:1002A5006DADF07F0712063BE52E7061E5386402FF
:1002B500705BE52D60051208FE8052E53275F00A87
:1002C50012056DFDE4FF12063BE53275F00A1205D5
:1002D5006DADF07F0112063B7D0A7F0212063B0DD4
:1002E5007F0312063B7F0412063B1D7F0512063B6A
:1002F500E53075F00A12056DFD7F0612063BE53007
:1003050075F00A12056DADF07F0712063BE52E70FC
:100315001DE53864037017E52D60051208FE800E93
:100325001205F60D7F0612063B7F0712063BE52EEA
:1003350064017007E536700312066CE52E640170E2
:1003450051E5366401704BE52D600512066C80425F
:100355007D0BE4FF12063B7F0112063B1D7F021257
:10036500063BE52B75F00A12056DFD7F0312063B72
:10037500E52B12062AE52A75F00A12056DFD7F06A2
:1003850012063BE52A75F00A12056DADF07F0712DE
:10039500063BE52E64017061E5366402705BE52D70
:1003A500600512066C8052E52C75F00A12056DFD8C
:1003B500E4FF12063BE52C75F00A12056DADF07FE2
:1003C5000112063B7D0A7F0212063B0D7F031206D2
:1003D5003B7F0412063B1D7F0512063BE52A75F09F
:1003E5000A12056DFD7F0612063BE52A75F00A1215
:1003F500056DADF07F0712063BE52E6401704FE5F4
:100405003664037049E52D600302066CE52C75F032
:100415000A12056DFDE4FF12063BE52C75F00A1284
:10042500056DADF07F0112063B7D0A7F0212063B8A
:10043500E52B75F00A12056DFD7F0312063BE52BD2
:0F04450012062A0D7F0612063B7F0712063B2286
:10097E00538E7F5389F0758A66758CFCC28DD28C2E
:05098E00D2A9D2AF2246
:03000B0002045498
:10045400C0E0C0F0C083C082C0D075D000C000C06E
:0D04640001C002C003C004C005C006C007EF
:100471000522E522700205210524E52470020523E9
:100481000526E52670020525C394C8E5259400409C
:10049100097525007526006339FFC3E52294E8E557
:1004A1002194034009752100752200632DFFC3E5E6
:1004B100249432E5239400400C7523007524001226
:0504C10009CB12000E42
:1004C600D007D006D005D004D003D002D001D0008A
:0B04D600D0D0D082D083D0F0D0E03234
:10070A00C2AF1208B47FCC12088D7F4412088D1232
:10071A0008B47FCC12088D7FBE12088D1208DB8FB9
:10072A000A1208DB8F0B1208B4E50BF534E50AF55B
:10073A0035E534C4F854F0C868F534E535C4540FC7
:05074A0048F535D2AFB7
:01074F002287
:1007CB00750A80E4FD7F8E120993E4F50BC3E50BEC
:1007DB0094037480948050197430250BF8E6FF1243
:1007EB0009A7AD07AF0A120993050A050A050B8085
:0807FB00DC7D807F8E02099372
:10086400750881E4F509C3E5099403748094805004
:1008740017AF081207501209BA74302509F8A607F1
:0808840005080508050980DEE6
:01088C002249
:0A09EE00E4F52F1207CB752F01224C
:10083A00E4FFFEEFC39403748094805012742A2F4D
:10084A00F8E6FD74302FF8E6B505010E0F80E4AF27
:09085A0006EF6403700375290127
:010863002272
:1006C000E5296045E5397F046007120803D2808080
:1006D00005120803C280E4FF120803E539652860AB
:1006E000050527853928C3E527941974809480501F
:1006F00006AFB0EFF46012E4F527F5297F04120885
:09070000037580FFE4FF120803F9
:0107090022CD
:10093A0012095212097E12083A1206C0E52F600304
:08094A0012086412024580EE60
:040968007F057E0089
:10096C007C007D0C12058FEF1FAC0670011E4C70C5
:02097C00F62261
:02088D00AB07B7
:10088F00E4FAEAC39408748094805012C294EB1374
:10089F009294120968D294EBC313FB0A80E47F058C
:0508AF007E0002096C4F
:1008DB00E4FAEAC39408748094805014C294EBC376
:1008EB0013FBD2943094034303801209680A80E20D
:0208FB00AF0349
:0108FD0022D8
:1008B400C200D2947F0C7E0012096CC2947F507ED9
:1008C4000012096CD2947F0A7E0012096CA29492E1
:0608D40000120968A200F9
:0108DA0022FB
:1004ED0002093AE493A3F8E493A34003F68001F2E2
:1004FD0008DFF48029E493A3F85407240CC8C33310
:10050D00C4540F4420C8834004F456800146F6DFDE
:10051D00E4800B010204081020408090078FE47ED8
:10052D00019360BCA3FF543F30E509541FFEE493D3
:10053D00A360010ECF54C025E060A840B8E493A39A
:10054D00FAE493A3F8E493A3C8C582C8CAC583CAC5
:10055D00F0A3C8C582C8CAC583CADFE9DEE780BE7D
:0107CA00002E
:10056D00C2D530F707B2D563F0FF05F030E70CB216
:10057D00D5F4048463F0FF05F080018430D502F4D6
:02058D00042246
:10058F00EF8DF0A4A8F0CF8CF0A428CE8DF0A42E80
:02059F00FE223A
:1005A100BC000BBE0029EF8DF084FFADF022E4CC3E
:1005B100F875F008EF2FFFEE33FEEC33FCEE9DEC07
:1005C100984005FCEE9DFE0FD5F0E9E4CEFD22ED4D
:1005D100F8F5F0EE8420D21CFEADF075F008EF2F97
:1005E100FFED33FD4007985006D5F0F222C398FD88
:0505F1000FD5F0EA2225
:00000001FF
