:030000000200A853
:0C00A800787FE4F6D8FD7581100200EFAF
:0B02A200C0F9A4B0999282F880908609
:0A029700080800000000000000004D
:0B028100EF1FAC0670011E4C70F6224F
:0802AD007F027E7EDEFEDFFC15
:0102B5002226
:10020B00EF603224FB601314601914601F24037019
:10021B0027E5A0541F4480F5A022E5A0541F44A05D
:10022B00F5A022E5A0541F44C0F5A022E5A0541F61
:09023B0044E0F5A02253A01F22AB
:100271007F0512020BE4F5801F12020B7580FF222D
:10024400AB077FE87E031202817580FF7F061202EE
:100254000BAF03A8077401088002C333D8FCF580F0
:0D0264007F0712020BED9002A293F580229D
:0902B600D291D2A8D288D2AF2265
:10013400AE08AF097C007D641201B6AD07E4FF127E
:100144000244AE08AF097C007D641201B67E007FD4
:100154000ACFCDCFCECCCE1201B6AD077F011202AD
:1001640044AE08AF097C007D0A1201B67F02120278
:1001740044AE0CAF0D7C007D641201B6AD077F0563
:10018400120244AE0CAF0D7C007D641201B67E00F9
:100194007F0ACFCDCFCECCCE1201B6AD077F0612EB
:1001A4000244AE0CAF0D7C007D0A1201B67F07023B
:0201B400024403
:03000B0002000EE2
:10000E00C0E0C0D075D000C000C004C005C006C09E
:01001E0007DA
:10001F007510007FD07E0712028120916D3091FD07
:10002F002091FDE4FDEDC3940474809480505BE453
:10003F00FCECC3940474809480504C3091FD30914B
:10004F00121202AD0510C3E510941E748094804007
:10005F00ED8037ED25E02408F8C000E6FE08E6FF46
:10006F00EEC313FEEF13D000A60608F6C3E51094F7
:10007F000874809480400AED25E02409F8E6448056
:0A008F00F67510000C80AA0D809B8E
:0F009900D007D006D005D004D000D0D0D0E032B0
:0B028C001202711202B612013480FB56
:1000B40002028CE493A3F8E493A34003F68001F2D4
:1000C40008DFF48029E493A3F85407240CC8C3334D
:1000D400C4540F4420C8834004F456800146F6DF1C
:1000E400E4800B0102040810204080900297E47E13
:1000F400019360BCA3FF543F30E509541FFEE49311
:10010400A360010ECF54C025E060A840B8E493A3D7
:10011400FAE493A3F8E493A3C8C582C8CAC583CA02
:10012400F0A3C8C582C8CAC583CADFE9DEE780BEBA
:0102A100005C
:1001B600BC000BBE0029EF8DF084FFADF022E4CC2D
:1001C600F875F008EF2FFFEE33FEEC33FCEE9DECF6
:1001D600984005FCEE9DFE0FD5F0E9E4CEFD22ED3C
:1001E600F8F5F0EE8420D21CFEADF075F008EF2F86
:1001F600FFED33FD4007985006D5F0F222C398FD77
:050206000FD5F0EA2213
:00000001FF
